{
  "contractName": "Mercado",
  "abi": [
    {
      "inputs": [],
      "payable": false,
      "stateMutability": "nonpayable",
      "type": "constructor"
    },
    {
      "anonymous": false,
      "inputs": [
        {
          "indexed": true,
          "internalType": "uint256",
          "name": "idProducto",
          "type": "uint256"
        }
      ],
      "name": "eventoComprar",
      "type": "event"
    },
    {
      "constant": true,
      "inputs": [
        {
          "internalType": "address",
          "name": "",
          "type": "address"
        }
      ],
      "name": "compras",
      "outputs": [
        {
          "internalType": "bool",
          "name": "",
          "type": "bool"
        }
      ],
      "payable": false,
      "stateMutability": "view",
      "type": "function"
    },
    {
      "constant": true,
      "inputs": [],
      "name": "contadorProductos",
      "outputs": [
        {
          "internalType": "uint256",
          "name": "",
          "type": "uint256"
        }
      ],
      "payable": false,
      "stateMutability": "view",
      "type": "function"
    },
    {
      "constant": true,
      "inputs": [
        {
          "internalType": "uint256",
          "name": "",
          "type": "uint256"
        }
      ],
      "name": "productos",
      "outputs": [
        {
          "internalType": "uint256",
          "name": "id",
          "type": "uint256"
        },
        {
          "internalType": "string",
          "name": "nombre",
          "type": "string"
        }
      ],
      "payable": false,
      "stateMutability": "view",
      "type": "function"
    },
    {
      "constant": false,
      "inputs": [
        {
          "internalType": "uint256",
          "name": "idProducto",
          "type": "uint256"
        }
      ],
      "name": "comprar",
      "outputs": [],
      "payable": false,
      "stateMutability": "nonpayable",
      "type": "function"
    },
    {
      "constant": false,
      "inputs": [
        {
          "internalType": "string",
          "name": "nombre",
          "type": "string"
        }
      ],
      "name": "addProducto",
      "outputs": [],
      "payable": false,
      "stateMutability": "nonpayable",
      "type": "function"
    }
  ],
  "bytecode": "0x6080604052600060025534801561001557600080fd5b5061005a6040518060400160405280601981526020017f5472616a65204e61706f6c65c3b36e20426f6e6170617274650000000000000081525061019660201b60201c565b61009e6040518060400160405280601381526020017f436f72617a6f6e20646520526173707574696e0000000000000000000000000081525061019660201b60201c565b6100e26040518060400160405280601b81526020017f436f726f6e61206465206c61205265696e612049736162656c2049000000000081525061019660201b60201c565b6101096040518060600160405280602681526020016107eb6026913961019660201b60201c565b61014d6040518060400160405280601281526020017f416c666f6d62726120646520416c6164696e000000000000000000000000000081525061019660201b60201c565b6101916040518060400160405280601781526020017f42c3a163756c6f207361677261646f20646520476f6b7500000000000000000081525061019660201b60201c565b6102a6565b60026000815480929190600101919050555060405180604001604052806002548152602001828152506001600060025481526020019081526020016000206000820151816000015560208201518160010190805190602001906101fa929190610201565b5090505050565b828054600181600116156101000203166002900490600052602060002090601f016020900481019282601f1061024257805160ff1916838001178555610270565b82800160010185558215610270579182015b8281111561026f578251825591602001919060010190610254565b5b50905061027d9190610281565b5090565b6102a391905b8082111561029f576000816000905550600101610287565b5090565b90565b610536806102b56000396000f3fe608060405234801561001057600080fd5b50600436106100575760003560e01c806302bcd3351461005c57806397283acb1461008a57806399553636146100a8578063e31fca6214610156578063f25742bd14610211575b600080fd5b6100886004803603602081101561007257600080fd5b810190808035906020019092919050505061026d565b005b61009261030f565b6040518082815260200191505060405180910390f35b6100d4600480360360208110156100be57600080fd5b8101908080359060200190929190505050610315565b6040518083815260200180602001828103825283818151815260200191508051906020019080838360005b8381101561011a5780820151818401526020810190506100ff565b50505050905090810190601f1680156101475780820380516001836020036101000a031916815260200191505b50935050505060405180910390f35b61020f6004803603602081101561016c57600080fd5b810190808035906020019064010000000081111561018957600080fd5b82018360208201111561019b57600080fd5b803590602001918460018302840111640100000000831117156101bd57600080fd5b91908080601f016020809104026020016040519081016040528093929190818152602001838380828437600081840152601f19601f8201169050808301925050505050505091929192905050506103d1565b005b6102536004803603602081101561022757600080fd5b81019080803573ffffffffffffffffffffffffffffffffffffffff16906020019092919050505061043c565b604051808215151515815260200191505060405180910390f35b60008111801561027f57506002548111155b61028857600080fd5b60016000803373ffffffffffffffffffffffffffffffffffffffff1673ffffffffffffffffffffffffffffffffffffffff16815260200190815260200160002060006101000a81548160ff021916908315150217905550807f1278f7f23cad466d96b4d531f00a35949456aebfff84153a26182fdea93318c160405160405180910390a250565b60025481565b6001602052806000526040600020600091509050806000015490806001018054600181600116156101000203166002900480601f0160208091040260200160405190810160405280929190818152602001828054600181600116156101000203166002900480156103c75780601f1061039c576101008083540402835291602001916103c7565b820191906000526020600020905b8154815290600101906020018083116103aa57829003601f168201915b5050505050905082565b600260008154809291906001019190505550604051806040016040528060025481526020018281525060016000600254815260200190815260200160002060008201518160000155602082015181600101908051906020019061043592919061045c565b5090505050565b60006020528060005260406000206000915054906101000a900460ff1681565b828054600181600116156101000203166002900490600052602060002090601f016020900481019282601f1061049d57805160ff19168380011785556104cb565b828001600101855582156104cb579182015b828111156104ca5782518255916020019190600101906104af565b5b5090506104d891906104dc565b5090565b6104fe91905b808211156104fa5760008160009055506001016104e2565b5090565b9056fea265627a7a72315820912007296d1dda10fd39598ba2a0ce20c9f107a40ba0f6a499ea424f8c5ed51964736f6c63430005100032546f726e696c6c6f732064656c206d6f6e737472756f206465204672616e6b656e737465696e",
  "source": "pragma solidity 0.5.16;\r\n\r\ncontract Mercado {\r\n    \r\n    struct Producto {\r\n        uint id;\r\n        string nombre;\r\n    }\r\n\r\n    mapping(address => bool) public compras;\r\n    mapping(uint => Producto) public productos;\r\n    uint public contadorProductos = 0;\r\n    \r\n    event eventoComprar (\r\n        uint indexed idProducto\r\n    );\r\n    \r\n    constructor () public {\r\n        addProducto(\"Traje Napoleón Bonaparte\");\r\n        addProducto(\"Corazon de Rasputin\");\r\n        addProducto(\"Corona de la Reina Isabel I\");\r\n        addProducto(\"Tornillos del monstruo de Frankenstein\");\r\n        addProducto(\"Alfombra de Aladin\");\r\n        addProducto(\"Báculo sagrado de Goku\");\r\n    }\r\n\r\n   function comprar (uint idProducto) public {\r\n        require(idProducto > 0 && idProducto <= contadorProductos);\r\n\r\n        compras[msg.sender] = true;\r\n\r\n        emit eventoComprar(idProducto);\r\n    }\r\n\r\n    function addProducto(string memory nombre) public {\r\n        contadorProductos ++;\r\n        productos[contadorProductos] = Producto(contadorProductos, nombre);\r\n    }\r\n}\r\n",
  "sourcePath": "C:/Users/neisa/Documents/9no Semestre/Redes 3/Final/Blockchain_expoarticulos/contracts/Mercado.sol",
  "compiler": {
    "name": "solc",
    "version": "0.5.16+commit.9c3226ce.Emscripten.clang"
  },
  "schemaVersion": "3.2.3",
  "updatedAt": "2020-08-23T20:38:46.708Z",
  "networkType": "ethereum",
  "devdoc": {
    "methods": {}
  },
  "userdoc": {
    "methods": {}
  }
}